{
  "contractName": "Admin",
  "abi": [
    {
      "anonymous": false,
      "inputs": [
        {
          "indexed": false,
          "name": "oldAdmin",
          "type": "address"
        },
        {
          "indexed": false,
          "name": "newAdmin",
          "type": "address"
        }
      ],
      "name": "AdminChanged",
      "type": "event"
    },
    {
      "constant": true,
      "inputs": [],
      "name": "getAdmin",
      "outputs": [
        {
          "name": "",
          "type": "address"
        }
      ],
      "payable": false,
      "stateMutability": "view",
      "type": "function"
    },
    {
      "constant": false,
      "inputs": [
        {
          "name": "newAdmin",
          "type": "address"
        }
      ],
      "name": "changeAdmin",
      "outputs": [],
      "payable": false,
      "stateMutability": "nonpayable",
      "type": "function"
    }
  ],
  "bytecode": "0x608060405234801561001057600080fd5b506102e4806100206000396000f3fe608060405234801561001057600080fd5b50600436106100365760003560e01c80636e9960c31461003b5780638f28397014610085575b600080fd5b6100436100c9565b604051808273ffffffffffffffffffffffffffffffffffffffff1673ffffffffffffffffffffffffffffffffffffffff16815260200191505060405180910390f35b6100c76004803603602081101561009b57600080fd5b81019080803573ffffffffffffffffffffffffffffffffffffffff1690602001909291905050506100f2565b005b60008060009054906101000a900473ffffffffffffffffffffffffffffffffffffffff16905090565b6000809054906101000a900473ffffffffffffffffffffffffffffffffffffffff1673ffffffffffffffffffffffffffffffffffffffff163373ffffffffffffffffffffffffffffffffffffffff16146101b4576040517f08c379a000000000000000000000000000000000000000000000000000000000815260040180806020018281038252601b8152602001807f6f6e6c792061646d696e2063616e206368616e67652061646d696e000000000081525060200191505060405180910390fd5b7f7e644d79422f17c01e4894b5f4f588d331ebfa28653d42ae832dc59e38c9798f6000809054906101000a900473ffffffffffffffffffffffffffffffffffffffff1682604051808373ffffffffffffffffffffffffffffffffffffffff1673ffffffffffffffffffffffffffffffffffffffff1681526020018273ffffffffffffffffffffffffffffffffffffffff1673ffffffffffffffffffffffffffffffffffffffff1681526020019250505060405180910390a1806000806101000a81548173ffffffffffffffffffffffffffffffffffffffff021916908373ffffffffffffffffffffffffffffffffffffffff1602179055505056fea265627a7a72305820cf8142406c543fd4fb5975a1cadd96e6544eb5eda0df8f3b146b400582aa26d564736f6c63430005090032",
  "source": "pragma solidity ^0.5.2;\n\ncontract Admin {\n\n    address internal _admin;\n\n    event AdminChanged(address oldAdmin, address newAdmin);\n\n    /// @notice gives the current administrator of this contract.\n    /// @return the current administrator of this contract.\n    function getAdmin() external view returns (address) {\n        return _admin;\n    }\n\n    /// @notice change the administrator to be `newAdmin`.\n    /// @param newAdmin address of the new administrator.\n    function changeAdmin(address newAdmin) external {\n        require(msg.sender == _admin, \"only admin can change admin\");\n        emit AdminChanged(_admin, newAdmin);\n        _admin = newAdmin;\n    }\n\n    modifier onlyAdmin() {\n        require (msg.sender == _admin, \"only admin allowed\");\n        _;\n    }\n\n}\n",
  "sourcePath": "/Users/hprieto/Dev/elons-musk-smart-contracts/contracts/common/BaseWithStorage/Admin.sol",
  "compiler": {
    "name": "solc",
    "version": "0.5.9+commit.e560f70d.Emscripten.clang"
  },
  "schemaVersion": "3.4.3",
  "updatedAt": "2021-11-17T02:37:22.277Z",
  "devdoc": {
    "methods": {
      "changeAdmin(address)": {
        "params": {
          "newAdmin": "address of the new administrator."
        }
      },
      "getAdmin()": {
        "return": "the current administrator of this contract."
      }
    }
  },
  "userdoc": {
    "methods": {
      "changeAdmin(address)": {
        "notice": "change the administrator to be `newAdmin`."
      },
      "getAdmin()": {
        "notice": "gives the current administrator of this contract."
      }
    }
  }
}