{
  "contractName": "ElonsMusk",
  "abi": [
    {
      "constant": false,
      "inputs": [
        {
          "name": "newAdmin",
          "type": "address"
        }
      ],
      "name": "changeExecutionAdmin",
      "outputs": [],
      "payable": false,
      "stateMutability": "nonpayable",
      "type": "function"
    },
    {
      "constant": false,
      "inputs": [
        {
          "name": "spender",
          "type": "address"
        },
        {
          "name": "amount",
          "type": "uint256"
        }
      ],
      "name": "approve",
      "outputs": [
        {
          "name": "success",
          "type": "bool"
        }
      ],
      "payable": false,
      "stateMutability": "nonpayable",
      "type": "function"
    },
    {
      "constant": true,
      "inputs": [],
      "name": "totalSupply",
      "outputs": [
        {
          "name": "",
          "type": "uint256"
        }
      ],
      "payable": false,
      "stateMutability": "view",
      "type": "function"
    },
    {
      "constant": false,
      "inputs": [
        {
          "name": "owner",
          "type": "address"
        },
        {
          "name": "amount",
          "type": "uint256"
        }
      ],
      "name": "burnFor",
      "outputs": [
        {
          "name": "",
          "type": "bool"
        }
      ],
      "payable": false,
      "stateMutability": "nonpayable",
      "type": "function"
    },
    {
      "constant": false,
      "inputs": [
        {
          "name": "from",
          "type": "address"
        },
        {
          "name": "to",
          "type": "address"
        },
        {
          "name": "amount",
          "type": "uint256"
        }
      ],
      "name": "transferFrom",
      "outputs": [
        {
          "name": "success",
          "type": "bool"
        }
      ],
      "payable": false,
      "stateMutability": "nonpayable",
      "type": "function"
    },
    {
      "constant": false,
      "inputs": [
        {
          "name": "owner",
          "type": "address"
        },
        {
          "name": "spender",
          "type": "address"
        },
        {
          "name": "amount",
          "type": "uint256"
        }
      ],
      "name": "approveFor",
      "outputs": [
        {
          "name": "success",
          "type": "bool"
        }
      ],
      "payable": false,
      "stateMutability": "nonpayable",
      "type": "function"
    },
    {
      "constant": true,
      "inputs": [],
      "name": "decimals",
      "outputs": [
        {
          "name": "",
          "type": "uint8"
        }
      ],
      "payable": false,
      "stateMutability": "view",
      "type": "function"
    },
    {
      "constant": false,
      "inputs": [
        {
          "name": "owner",
          "type": "address"
        },
        {
          "name": "spender",
          "type": "address"
        },
        {
          "name": "amountNeeded",
          "type": "uint256"
        }
      ],
      "name": "addAllowanceIfNeeded",
      "outputs": [
        {
          "name": "success",
          "type": "bool"
        }
      ],
      "payable": false,
      "stateMutability": "nonpayable",
      "type": "function"
    },
    {
      "constant": false,
      "inputs": [
        {
          "name": "amount",
          "type": "uint256"
        }
      ],
      "name": "burn",
      "outputs": [
        {
          "name": "",
          "type": "bool"
        }
      ],
      "payable": false,
      "stateMutability": "nonpayable",
      "type": "function"
    },
    {
      "constant": true,
      "inputs": [
        {
          "name": "who",
          "type": "address"
        }
      ],
      "name": "isExecutionOperator",
      "outputs": [
        {
          "name": "",
          "type": "bool"
        }
      ],
      "payable": false,
      "stateMutability": "view",
      "type": "function"
    },
    {
      "constant": true,
      "inputs": [
        {
          "name": "who",
          "type": "address"
        }
      ],
      "name": "isSuperOperator",
      "outputs": [
        {
          "name": "",
          "type": "bool"
        }
      ],
      "payable": false,
      "stateMutability": "view",
      "type": "function"
    },
    {
      "constant": false,
      "inputs": [
        {
          "name": "executionOperator",
          "type": "address"
        },
        {
          "name": "enabled",
          "type": "bool"
        }
      ],
      "name": "setExecutionOperator",
      "outputs": [],
      "payable": false,
      "stateMutability": "nonpayable",
      "type": "function"
    },
    {
      "constant": true,
      "inputs": [],
      "name": "getAdmin",
      "outputs": [
        {
          "name": "",
          "type": "address"
        }
      ],
      "payable": false,
      "stateMutability": "view",
      "type": "function"
    },
    {
      "constant": true,
      "inputs": [
        {
          "name": "owner",
          "type": "address"
        }
      ],
      "name": "balanceOf",
      "outputs": [
        {
          "name": "",
          "type": "uint256"
        }
      ],
      "payable": false,
      "stateMutability": "view",
      "type": "function"
    },
    {
      "constant": false,
      "inputs": [
        {
          "name": "from",
          "type": "address"
        },
        {
          "name": "to",
          "type": "address"
        },
        {
          "name": "amount",
          "type": "uint256"
        },
        {
          "name": "gasLimit",
          "type": "uint256"
        },
        {
          "name": "data",
          "type": "bytes"
        }
      ],
      "name": "approveAndExecuteWithSpecificGas",
      "outputs": [
        {
          "name": "success",
          "type": "bool"
        },
        {
          "name": "returnData",
          "type": "bytes"
        }
      ],
      "payable": false,
      "stateMutability": "nonpayable",
      "type": "function"
    },
    {
      "constant": false,
      "inputs": [
        {
          "name": "newAdmin",
          "type": "address"
        }
      ],
      "name": "changeAdmin",
      "outputs": [],
      "payable": false,
      "stateMutability": "nonpayable",
      "type": "function"
    },
    {
      "constant": false,
      "inputs": [
        {
          "name": "to",
          "type": "address"
        },
        {
          "name": "amount",
          "type": "uint256"
        }
      ],
      "name": "transfer",
      "outputs": [
        {
          "name": "success",
          "type": "bool"
        }
      ],
      "payable": false,
      "stateMutability": "nonpayable",
      "type": "function"
    },
    {
      "constant": false,
      "inputs": [
        {
          "name": "superOperator",
          "type": "address"
        },
        {
          "name": "enabled",
          "type": "bool"
        }
      ],
      "name": "setSuperOperator",
      "outputs": [],
      "payable": false,
      "stateMutability": "nonpayable",
      "type": "function"
    },
    {
      "constant": true,
      "inputs": [],
      "name": "getExecutionAdmin",
      "outputs": [
        {
          "name": "",
          "type": "address"
        }
      ],
      "payable": false,
      "stateMutability": "view",
      "type": "function"
    },
    {
      "constant": false,
      "inputs": [
        {
          "name": "target",
          "type": "address"
        },
        {
          "name": "amount",
          "type": "uint256"
        },
        {
          "name": "data",
          "type": "bytes"
        }
      ],
      "name": "paidCall",
      "outputs": [
        {
          "name": "",
          "type": "bytes"
        }
      ],
      "payable": true,
      "stateMutability": "payable",
      "type": "function"
    },
    {
      "constant": false,
      "inputs": [
        {
          "name": "target",
          "type": "address"
        },
        {
          "name": "amount",
          "type": "uint256"
        },
        {
          "name": "data",
          "type": "bytes"
        }
      ],
      "name": "approveAndCall",
      "outputs": [
        {
          "name": "",
          "type": "bytes"
        }
      ],
      "payable": true,
      "stateMutability": "payable",
      "type": "function"
    },
    {
      "constant": false,
      "inputs": [
        {
          "name": "from",
          "type": "address"
        },
        {
          "name": "to",
          "type": "address"
        },
        {
          "name": "amount",
          "type": "uint256"
        },
        {
          "name": "gasLimit",
          "type": "uint256"
        },
        {
          "name": "tokenGasPrice",
          "type": "uint256"
        },
        {
          "name": "baseGasCharge",
          "type": "uint256"
        },
        {
          "name": "tokenReceiver",
          "type": "address"
        },
        {
          "name": "data",
          "type": "bytes"
        }
      ],
      "name": "approveAndExecuteWithSpecificGasAndChargeForIt",
      "outputs": [
        {
          "name": "success",
          "type": "bool"
        },
        {
          "name": "returnData",
          "type": "bytes"
        }
      ],
      "payable": false,
      "stateMutability": "nonpayable",
      "type": "function"
    },
    {
      "constant": false,
      "inputs": [
        {
          "name": "to",
          "type": "address"
        },
        {
          "name": "gasLimit",
          "type": "uint256"
        },
        {
          "name": "data",
          "type": "bytes"
        }
      ],
      "name": "executeWithSpecificGas",
      "outputs": [
        {
          "name": "success",
          "type": "bool"
        },
        {
          "name": "returnData",
          "type": "bytes"
        }
      ],
      "payable": false,
      "stateMutability": "nonpayable",
      "type": "function"
    },
    {
      "constant": true,
      "inputs": [
        {
          "name": "owner",
          "type": "address"
        },
        {
          "name": "spender",
          "type": "address"
        }
      ],
      "name": "allowance",
      "outputs": [
        {
          "name": "remaining",
          "type": "uint256"
        }
      ],
      "payable": false,
      "stateMutability": "view",
      "type": "function"
    },
    {
      "constant": false,
      "inputs": [
        {
          "name": "from",
          "type": "address"
        },
        {
          "name": "to",
          "type": "address"
        },
        {
          "name": "amount",
          "type": "uint256"
        },
        {
          "name": "gasLimit",
          "type": "uint256"
        },
        {
          "name": "tokenGasPrice",
          "type": "uint256"
        },
        {
          "name": "baseGasCharge",
          "type": "uint256"
        },
        {
          "name": "tokenReceiver",
          "type": "address"
        }
      ],
      "name": "transferAndChargeForGas",
      "outputs": [
        {
          "name": "",
          "type": "bool"
        }
      ],
      "payable": false,
      "stateMutability": "nonpayable",
      "type": "function"
    },
    {
      "inputs": [
        {
          "name": "elonsAdmin",
          "type": "address"
        },
        {
          "name": "executionAdmin",
          "type": "address"
        },
        {
          "name": "beneficiary",
          "type": "address"
        }
      ],
      "payable": false,
      "stateMutability": "nonpayable",
      "type": "constructor"
    },
    {
      "anonymous": false,
      "inputs": [
        {
          "indexed": true,
          "name": "from",
          "type": "address"
        },
        {
          "indexed": true,
          "name": "to",
          "type": "address"
        },
        {
          "indexed": false,
          "name": "value",
          "type": "uint256"
        }
      ],
      "name": "Transfer",
      "type": "event"
    },
    {
      "anonymous": false,
      "inputs": [
        {
          "indexed": true,
          "name": "owner",
          "type": "address"
        },
        {
          "indexed": true,
          "name": "spender",
          "type": "address"
        },
        {
          "indexed": false,
          "name": "value",
          "type": "uint256"
        }
      ],
      "name": "Approval",
      "type": "event"
    },
    {
      "anonymous": false,
      "inputs": [
        {
          "indexed": false,
          "name": "superOperator",
          "type": "address"
        },
        {
          "indexed": false,
          "name": "enabled",
          "type": "bool"
        }
      ],
      "name": "SuperOperator",
      "type": "event"
    },
    {
      "anonymous": false,
      "inputs": [
        {
          "indexed": false,
          "name": "oldAdmin",
          "type": "address"
        },
        {
          "indexed": false,
          "name": "newAdmin",
          "type": "address"
        }
      ],
      "name": "AdminChanged",
      "type": "event"
    },
    {
      "anonymous": false,
      "inputs": [
        {
          "indexed": false,
          "name": "oldAdmin",
          "type": "address"
        },
        {
          "indexed": false,
          "name": "newAdmin",
          "type": "address"
        }
      ],
      "name": "ExecutionAdminAdminChanged",
      "type": "event"
    },
    {
      "anonymous": false,
      "inputs": [
        {
          "indexed": false,
          "name": "executionOperator",
          "type": "address"
        },
        {
          "indexed": false,
          "name": "enabled",
          "type": "bool"
        }
      ],
      "name": "ExecutionOperator",
      "type": "event"
    },
    {
      "constant": true,
      "inputs": [],
      "name": "name",
      "outputs": [
        {
          "name": "",
          "type": "string"
        }
      ],
      "payable": false,
      "stateMutability": "view",
      "type": "function"
    },
    {
      "constant": true,
      "inputs": [],
      "name": "symbol",
      "outputs": [
        {
          "name": "",
          "type": "string"
        }
      ],
      "payable": false,
      "stateMutability": "view",
      "type": "function"
    }
  ],
  "bytecode": "0x60806040523480156200001157600080fd5b506040516200369038038062003690833981810160405260608110156200003757600080fd5b8101908080519060200190929190805190602001909291908051906020019092919050505082600260006101000a81548173ffffffffffffffffffffffffffffffffffffffff021916908373ffffffffffffffffffffffffffffffffffffffff160217905550816000806101000a81548173ffffffffffffffffffffffffffffffffffffffff021916908373ffffffffffffffffffffffffffffffffffffffff160217905550620000f581653f231a70b800620000fe60201b60201c565b5050506200035d565b600073ffffffffffffffffffffffffffffffffffffffff168273ffffffffffffffffffffffffffffffffffffffff161415620001a2576040517f08c379a00000000000000000000000000000000000000000000000000000000081526004018080602001828103825260128152602001807f43616e6e6f74206d696e7420746f20307830000000000000000000000000000081525060200191505060405180910390fd5b6000811162000219576040517f08c379a00000000000000000000000000000000000000000000000000000000081526004018080602001828103825260148152602001807f63616e6e6f74206d696e74203020746f6b656e7300000000000000000000000081525060200191505060405180910390fd5b60006004549050600082820190508181116200029d576040517f08c379a00000000000000000000000000000000000000000000000000000000081526004018080602001828103825260088152602001807f6f766572666c6f7700000000000000000000000000000000000000000000000081525060200191505060405180910390fd5b8060048190555082600560008673ffffffffffffffffffffffffffffffffffffffff1673ffffffffffffffffffffffffffffffffffffffff168152602001908152602001600020600082825401925050819055508373ffffffffffffffffffffffffffffffffffffffff16600073ffffffffffffffffffffffffffffffffffffffff167fddf252ad1be2c89b69c2b068fc378daa952ba7f163c4a11628f55a4df523b3ef856040518082815260200191505060405180910390a350505050565b613323806200036d6000396000f3fe60806040526004361061019c5760003560e01c80636e9960c3116100ec578063b01b0ef71161008a578063dc2173f311610064578063dc2173f314610d59578063dcdf515814610eec578063dd62ed3e14611020578063e18aa335146110a55761019c565b8063b01b0ef714610aca578063bb1e23cb14610b21578063cae9ca5114610c3d5761019c565b80638f283970116100c65780638f2839701461091957806395d89b411461096a578063a9059cbb146109fa578063ac9fe42114610a6d5761019c565b80636e9960c3146106ff57806370a08231146107565780637dd711c4146107bb5761019c565b80632b9917461161015957806342966c681161013357806342966c681461057d57806361247de3146105d0578063654b748a14610639578063699c834b146106a25761019c565b80632b99174614610426578063313ce567146104b95780633b7b5a16146104ea5761019c565b806306fdde03146101a15780630819ba7414610231578063095ea7b31461028257806318160ddd146102f55780631dd319cb1461032057806323b872dd14610393575b600080fd5b3480156101ad57600080fd5b506101b6611176565b6040518080602001828103825283818151815260200191508051906020019080838360005b838110156101f65780820151818401526020810190506101db565b50505050905090810190601f1680156102235780820380516001836020036101000a031916815260200191505b509250505060405180910390f35b34801561023d57600080fd5b506102806004803603602081101561025457600080fd5b81019080803573ffffffffffffffffffffffffffffffffffffffff1690602001909291905050506111b3565b005b34801561028e57600080fd5b506102db600480360360408110156102a557600080fd5b81019080803573ffffffffffffffffffffffffffffffffffffffff16906020019092919080359060200190929190505050611353565b604051808215151515815260200191505060405180910390f35b34801561030157600080fd5b5061030a61136a565b6040518082815260200191505060405180910390f35b34801561032c57600080fd5b506103796004803603604081101561034357600080fd5b81019080803573ffffffffffffffffffffffffffffffffffffffff16906020019092919080359060200190929190505050611374565b604051808215151515815260200191505060405180910390f35b34801561039f57600080fd5b5061040c600480360360608110156103b657600080fd5b81019080803573ffffffffffffffffffffffffffffffffffffffff169060200190929190803573ffffffffffffffffffffffffffffffffffffffff1690602001909291908035906020019092919050505061138a565b604051808215151515815260200191505060405180910390f35b34801561043257600080fd5b5061049f6004803603606081101561044957600080fd5b81019080803573ffffffffffffffffffffffffffffffffffffffff169060200190929190803573ffffffffffffffffffffffffffffffffffffffff169060200190929190803590602001909291905050506115d1565b604051808215151515815260200191505060405180910390f35b3480156104c557600080fd5b506104ce6116c1565b604051808260ff1660ff16815260200191505060405180910390f35b3480156104f657600080fd5b506105636004803603606081101561050d57600080fd5b81019080803573ffffffffffffffffffffffffffffffffffffffff169060200190929190803573ffffffffffffffffffffffffffffffffffffffff169060200190929190803590602001909291905050506116ca565b604051808215151515815260200191505060405180910390f35b34801561058957600080fd5b506105b6600480360360208110156105a057600080fd5b81019080803590602001909291905050506117ba565b604051808215151515815260200191505060405180910390f35b3480156105dc57600080fd5b5061061f600480360360208110156105f357600080fd5b81019080803573ffffffffffffffffffffffffffffffffffffffff1690602001909291905050506117cf565b604051808215151515815260200191505060405180910390f35b34801561064557600080fd5b506106886004803603602081101561065c57600080fd5b81019080803573ffffffffffffffffffffffffffffffffffffffff169060200190929190505050611825565b604051808215151515815260200191505060405180910390f35b3480156106ae57600080fd5b506106fd600480360360408110156106c557600080fd5b81019080803573ffffffffffffffffffffffffffffffffffffffff16906020019092919080351515906020019092919050505061187b565b005b34801561070b57600080fd5b506107146119ea565b604051808273ffffffffffffffffffffffffffffffffffffffff1673ffffffffffffffffffffffffffffffffffffffff16815260200191505060405180910390f35b34801561076257600080fd5b506107a56004803603602081101561077957600080fd5b81019080803573ffffffffffffffffffffffffffffffffffffffff169060200190929190505050611a14565b6040518082815260200191505060405180910390f35b3480156107c757600080fd5b50610893600480360360a08110156107de57600080fd5b81019080803573ffffffffffffffffffffffffffffffffffffffff169060200190929190803573ffffffffffffffffffffffffffffffffffffffff16906020019092919080359060200190929190803590602001909291908035906020019064010000000081111561084f57600080fd5b82018360208201111561086157600080fd5b8035906020019184600183028401116401000000008311171561088357600080fd5b9091929391929390505050611a5d565b604051808315151515815260200180602001828103825283818151815260200191508051906020019080838360005b838110156108dd5780820151818401526020810190506108c2565b50505050905090810190601f16801561090a5780820380516001836020036101000a031916815260200191505b50935050505060405180910390f35b34801561092557600080fd5b506109686004803603602081101561093c57600080fd5b81019080803573ffffffffffffffffffffffffffffffffffffffff169060200190929190505050611b63565b005b34801561097657600080fd5b5061097f611d23565b6040518080602001828103825283818151815260200191508051906020019080838360005b838110156109bf5780820151818401526020810190506109a4565b50505050905090810190601f1680156109ec5780820380516001836020036101000a031916815260200191505b509250505060405180910390f35b348015610a0657600080fd5b50610a5360048036036040811015610a1d57600080fd5b81019080803573ffffffffffffffffffffffffffffffffffffffff16906020019092919080359060200190929190505050611d60565b604051808215151515815260200191505060405180910390f35b348015610a7957600080fd5b50610ac860048036036040811015610a9057600080fd5b81019080803573ffffffffffffffffffffffffffffffffffffffff169060200190929190803515159060200190929190505050611d77565b005b348015610ad657600080fd5b50610adf611ee7565b604051808273ffffffffffffffffffffffffffffffffffffffff1673ffffffffffffffffffffffffffffffffffffffff16815260200191505060405180910390f35b610bc260048036036060811015610b3757600080fd5b81019080803573ffffffffffffffffffffffffffffffffffffffff1690602001909291908035906020019092919080359060200190640100000000811115610b7e57600080fd5b820183602082011115610b9057600080fd5b80359060200191846001830284011164010000000083111715610bb257600080fd5b9091929391929390505050611f10565b6040518080602001828103825283818151815260200191508051906020019080838360005b83811015610c02578082015181840152602081019050610be7565b50505050905090810190601f168015610c2f5780820380516001836020036101000a031916815260200191505b509250505060405180910390f35b610cde60048036036060811015610c5357600080fd5b81019080803573ffffffffffffffffffffffffffffffffffffffff1690602001909291908035906020019092919080359060200190640100000000811115610c9a57600080fd5b820183602082011115610cac57600080fd5b80359060200191846001830284011164010000000083111715610cce57600080fd5b9091929391929390505050612117565b6040518080602001828103825283818151815260200191508051906020019080838360005b83811015610d1e578082015181840152602081019050610d03565b50505050905090810190601f168015610d4b5780820380516001836020036101000a031916815260200191505b509250505060405180910390f35b348015610d6557600080fd5b50610e666004803603610100811015610d7d57600080fd5b81019080803573ffffffffffffffffffffffffffffffffffffffff169060200190929190803573ffffffffffffffffffffffffffffffffffffffff16906020019092919080359060200190929190803590602001909291908035906020019092919080359060200190929190803573ffffffffffffffffffffffffffffffffffffffff16906020019092919080359060200190640100000000811115610e2257600080fd5b820183602082011115610e3457600080fd5b80359060200191846001830284011164010000000083111715610e5657600080fd5b9091929391929390505050612314565b604051808315151515815260200180602001828103825283818151815260200191508051906020019080838360005b83811015610eb0578082015181840152602081019050610e95565b50505050905090810190601f168015610edd5780820380516001836020036101000a031916815260200191505b50935050505060405180910390f35b348015610ef857600080fd5b50610f9a60048036036060811015610f0f57600080fd5b81019080803573ffffffffffffffffffffffffffffffffffffffff1690602001909291908035906020019092919080359060200190640100000000811115610f5657600080fd5b820183602082011115610f6857600080fd5b80359060200191846001830284011164010000000083111715610f8a57600080fd5b909192939192939050505061243f565b604051808315151515815260200180602001828103825283818151815260200191508051906020019080838360005b83811015610fe4578082015181840152602081019050610fc9565b50505050905090810190601f1680156110115780820380516001836020036101000a031916815260200191505b50935050505060405180910390f35b34801561102c57600080fd5b5061108f6004803603604081101561104357600080fd5b81019080803573ffffffffffffffffffffffffffffffffffffffff169060200190929190803573ffffffffffffffffffffffffffffffffffffffff16906020019092919050505061257c565b6040518082815260200191505060405180910390f35b3480156110b157600080fd5b5061115c600480360360e08110156110c857600080fd5b81019080803573ffffffffffffffffffffffffffffffffffffffff169060200190929190803573ffffffffffffffffffffffffffffffffffffffff16906020019092919080359060200190929190803590602001909291908035906020019092919080359060200190929190803573ffffffffffffffffffffffffffffffffffffffff169060200190929190505050612603565b604051808215151515815260200191505060405180910390f35b60606040518060400160405280600b81526020017f456c6f6e6073204d75736b000000000000000000000000000000000000000000815250905090565b6000809054906101000a900473ffffffffffffffffffffffffffffffffffffffff1673ffffffffffffffffffffffffffffffffffffffff163373ffffffffffffffffffffffffffffffffffffffff1614611258576040517f08c379a000000000000000000000000000000000000000000000000000000000815260040180806020018281038252602d815260200180613288602d913960400191505060405180910390fd5b7fb2b670b34860515166c00eba5e2e5fa8116d57091604f37ba24ac8021c7fa1656000809054906101000a900473ffffffffffffffffffffffffffffffffffffffff1682604051808373ffffffffffffffffffffffffffffffffffffffff1673ffffffffffffffffffffffffffffffffffffffff1681526020018273ffffffffffffffffffffffffffffffffffffffff1673ffffffffffffffffffffffffffffffffffffffff1681526020019250505060405180910390a1806000806101000a81548173ffffffffffffffffffffffffffffffffffffffff021916908373ffffffffffffffffffffffffffffffffffffffff16021790555050565b60006113603384846126de565b6001905092915050565b6000600454905090565b600061138083836128a5565b6001905092915050565b60008373ffffffffffffffffffffffffffffffffffffffff163373ffffffffffffffffffffffffffffffffffffffff16141580156114125750600360003373ffffffffffffffffffffffffffffffffffffffff1673ffffffffffffffffffffffffffffffffffffffff16815260200190815260200160002060009054906101000a900460ff16155b156115bb576000600660008673ffffffffffffffffffffffffffffffffffffffff1673ffffffffffffffffffffffffffffffffffffffff16815260200190815260200160002060003373ffffffffffffffffffffffffffffffffffffffff1673ffffffffffffffffffffffffffffffffffffffff1681526020019081526020016000205490507fffffffffffffffffffffffffffffffffffffffffffffffffffffffffffffffff81146115b95782811015611535576040517f08c379a00000000000000000000000000000000000000000000000000000000081526004018080602001828103825260188152602001807f4e6f7420656e6f7567682066756e647320616c6c6f776564000000000000000081525060200191505060405180910390fd5b828103600660008773ffffffffffffffffffffffffffffffffffffffff1673ffffffffffffffffffffffffffffffffffffffff16815260200190815260200160002060003373ffffffffffffffffffffffffffffffffffffffff1673ffffffffffffffffffffffffffffffffffffffff168152602001908152602001600020819055505b505b6115c6848484612cc5565b600190509392505050565b60008373ffffffffffffffffffffffffffffffffffffffff163373ffffffffffffffffffffffffffffffffffffffff1614806116565750600360003373ffffffffffffffffffffffffffffffffffffffff1673ffffffffffffffffffffffffffffffffffffffff16815260200190815260200160002060009054906101000a900460ff165b6116ab576040517f08c379a00000000000000000000000000000000000000000000000000000000081526004018080602001828103825260258152602001806131be6025913960400191505060405180910390fd5b6116b68484846126de565b600190509392505050565b60006012905090565b60008373ffffffffffffffffffffffffffffffffffffffff163373ffffffffffffffffffffffffffffffffffffffff16148061174f5750600360003373ffffffffffffffffffffffffffffffffffffffff1673ffffffffffffffffffffffffffffffffffffffff16815260200190815260200160002060009054906101000a900460ff165b6117a4576040517f08c379a00000000000000000000000000000000000000000000000000000000081526004018080602001828103825260258152602001806131be6025913960400191505060405180910390fd5b6117af848484612f20565b600190509392505050565b60006117c633836128a5565b60019050919050565b6000600160008373ffffffffffffffffffffffffffffffffffffffff1673ffffffffffffffffffffffffffffffffffffffff16815260200190815260200160002060009054906101000a900460ff169050919050565b6000600360008373ffffffffffffffffffffffffffffffffffffffff1673ffffffffffffffffffffffffffffffffffffffff16815260200190815260200160002060009054906101000a900460ff169050919050565b6000809054906101000a900473ffffffffffffffffffffffffffffffffffffffff1673ffffffffffffffffffffffffffffffffffffffff163373ffffffffffffffffffffffffffffffffffffffff1614611920576040517f08c379a000000000000000000000000000000000000000000000000000000000815260040180806020018281038252603a815260200180613222603a913960400191505060405180910390fd5b80600160008473ffffffffffffffffffffffffffffffffffffffff1673ffffffffffffffffffffffffffffffffffffffff16815260200190815260200160002060006101000a81548160ff0219169083151502179055507ffcebaa973ed84808fb785c92941aa4798f3f66923f5a2ff544382db3a9b3a3a28282604051808373ffffffffffffffffffffffffffffffffffffffff1673ffffffffffffffffffffffffffffffffffffffff168152602001821515151581526020019250505060405180910390a15050565b6000600260009054906101000a900473ffffffffffffffffffffffffffffffffffffffff16905090565b6000600560008373ffffffffffffffffffffffffffffffffffffffff1673ffffffffffffffffffffffffffffffffffffffff168152602001908152602001600020549050919050565b60006060600160003373ffffffffffffffffffffffffffffffffffffffff1673ffffffffffffffffffffffffffffffffffffffff16815260200190815260200160002060009054906101000a900460ff16611b03576040517f08c379a000000000000000000000000000000000000000000000000000000000815260040180806020018281038252603a8152602001806132b5603a913960400191505060405180910390fd5b611b548888888888888080601f016020809104026020016040519081016040528093929190818152602001838380828437600081840152601f19601f82011690508083019250505050505050612fd7565b91509150965096945050505050565b600260009054906101000a900473ffffffffffffffffffffffffffffffffffffffff1673ffffffffffffffffffffffffffffffffffffffff163373ffffffffffffffffffffffffffffffffffffffff1614611c26576040517f08c379a000000000000000000000000000000000000000000000000000000000815260040180806020018281038252601b8152602001807f6f6e6c792061646d696e2063616e206368616e67652061646d696e000000000081525060200191505060405180910390fd5b7f7e644d79422f17c01e4894b5f4f588d331ebfa28653d42ae832dc59e38c9798f600260009054906101000a900473ffffffffffffffffffffffffffffffffffffffff1682604051808373ffffffffffffffffffffffffffffffffffffffff1673ffffffffffffffffffffffffffffffffffffffff1681526020018273ffffffffffffffffffffffffffffffffffffffff1673ffffffffffffffffffffffffffffffffffffffff1681526020019250505060405180910390a180600260006101000a81548173ffffffffffffffffffffffffffffffffffffffff021916908373ffffffffffffffffffffffffffffffffffffffff16021790555050565b60606040518060400160405280600581526020017f454d55534b000000000000000000000000000000000000000000000000000000815250905090565b6000611d6d338484612cc5565b6001905092915050565b600260009054906101000a900473ffffffffffffffffffffffffffffffffffffffff1673ffffffffffffffffffffffffffffffffffffffff163373ffffffffffffffffffffffffffffffffffffffff1614611e1d576040517f08c379a000000000000000000000000000000000000000000000000000000000815260040180806020018281038252602c81526020018061325c602c913960400191505060405180910390fd5b80600360008473ffffffffffffffffffffffffffffffffffffffff1673ffffffffffffffffffffffffffffffffffffffff16815260200190815260200160002060006101000a81548160ff0219169083151502179055507f44f92d27abdf4cfb6a7d712c3af68f3be086d4ca747ab802c36f67d6790060d88282604051808373ffffffffffffffffffffffffffffffffffffffff1673ffffffffffffffffffffffffffffffffffffffff168152602001821515151581526020019250505060405180910390a15050565b60008060009054906101000a900473ffffffffffffffffffffffffffffffffffffffff16905090565b6060611f6083838080601f016020809104026020016040519081016040528093929190818152602001838380828437600081840152601f19601f82011690508083019250505050505050336130ca565b611fd2576040517f08c379a00000000000000000000000000000000000000000000000000000000081526004018080602001828103825260158152602001807f666972737420706172616d20213d2073656e646572000000000000000000000081525060200191505060405180910390fd5b6000841115611fe757611fe6338686612f20565b5b600060608673ffffffffffffffffffffffffffffffffffffffff1634868660405180838380828437808301925050509250505060006040518083038185875af1925050503d8060008114612057576040519150601f19603f3d011682016040523d82523d6000602084013e61205c565b606091505b5091509150818190612109576040517f08c379a00000000000000000000000000000000000000000000000000000000081526004018080602001828103825283818151815260200191508051906020019080838360005b838110156120ce5780820151818401526020810190506120b3565b50505050905090810190601f1680156120fb5780820380516001836020036101000a031916815260200191505b509250505060405180910390fd5b508092505050949350505050565b606061216783838080601f016020809104026020016040519081016040528093929190818152602001838380828437600081840152601f19601f82011690508083019250505050505050336130ca565b6121d9576040517f08c379a00000000000000000000000000000000000000000000000000000000081526004018080602001828103825260158152602001807f666972737420706172616d20213d2073656e646572000000000000000000000081525060200191505060405180910390fd5b6121e43386866126de565b600060608673ffffffffffffffffffffffffffffffffffffffff1634868660405180838380828437808301925050509250505060006040518083038185875af1925050503d8060008114612254576040519150601f19603f3d011682016040523d82523d6000602084013e612259565b606091505b5091509150818190612306576040517f08c379a00000000000000000000000000000000000000000000000000000000081526004018080602001828103825283818151815260200191508051906020019080838360005b838110156122cb5780820151818401526020810190506122b0565b50505050905090810190601f1680156122f85780820380516001836020036101000a031916815260200191505b509250505060405180910390fd5b508092505050949350505050565b6000606060005a9050600160003373ffffffffffffffffffffffffffffffffffffffff1673ffffffffffffffffffffffffffffffffffffffff16815260200190815260200160002060009054906101000a900460ff166123bf576040517f08c379a000000000000000000000000000000000000000000000000000000000815260040180806020018281038252603a8152602001806132b5603a913960400191505060405180910390fd5b6124108c8c8c8c89898080601f016020809104026020016040519081016040528093929190818152602001838380828437600081840152601f19601f82011690508083019250505050505050612fd7565b809350819450505060008811156124305761242f8c8a8a848b8b61310b565b5b50995099975050505050505050565b60006060600160003373ffffffffffffffffffffffffffffffffffffffff1673ffffffffffffffffffffffffffffffffffffffff16815260200190815260200160002060009054906101000a900460ff166124e5576040517f08c379a000000000000000000000000000000000000000000000000000000000815260040180806020018281038252603a8152602001806132b5603a913960400191505060405180910390fd5b8573ffffffffffffffffffffffffffffffffffffffff1685858560405180838380828437808301925050509250505060006040518083038160008787f1925050503d8060008114612552576040519150601f19603f3d011682016040523d82523d6000602084013e612557565b606091505b508092508193505050603f858161256a57fe5b045a1161257357fe5b94509492505050565b6000600660008473ffffffffffffffffffffffffffffffffffffffff1673ffffffffffffffffffffffffffffffffffffffff16815260200190815260200160002060008373ffffffffffffffffffffffffffffffffffffffff1673ffffffffffffffffffffffffffffffffffffffff16815260200190815260200160002054905092915050565b6000805a9050600160003373ffffffffffffffffffffffffffffffffffffffff1673ffffffffffffffffffffffffffffffffffffffff16815260200190815260200160002060009054906101000a900460ff166126ab576040517f08c379a000000000000000000000000000000000000000000000000000000000815260040180806020018281038252603f8152602001806131e3603f913960400191505060405180910390fd5b6126b6898989612cc5565b60008511156126ce576126cd89878784888861310b565b5b6001915050979650505050505050565b600073ffffffffffffffffffffffffffffffffffffffff168373ffffffffffffffffffffffffffffffffffffffff16141580156127485750600073ffffffffffffffffffffffffffffffffffffffff168273ffffffffffffffffffffffffffffffffffffffff1614155b6127ba576040517f08c379a00000000000000000000000000000000000000000000000000000000081526004018080602001828103825260178152602001807f43616e6e6f7420617070726f766520776974682030783000000000000000000081525060200191505060405180910390fd5b80600660008573ffffffffffffffffffffffffffffffffffffffff1673ffffffffffffffffffffffffffffffffffffffff16815260200190815260200160002060008473ffffffffffffffffffffffffffffffffffffffff1673ffffffffffffffffffffffffffffffffffffffff168152602001908152602001600020819055508173ffffffffffffffffffffffffffffffffffffffff168373ffffffffffffffffffffffffffffffffffffffff167f8c5be1e5ebec7d5bd14f71427d1e84f3dd0314c0f7b2291e5b200ac8c7c3b925836040518082815260200191505060405180910390a3505050565b6000811161291b576040517f08c379a00000000000000000000000000000000000000000000000000000000081526004018080602001828103825260148152602001807f63616e6e6f74206275726e203020746f6b656e7300000000000000000000000081525060200191505060405180910390fd5b8173ffffffffffffffffffffffffffffffffffffffff163373ffffffffffffffffffffffffffffffffffffffff16141580156129a15750600360003373ffffffffffffffffffffffffffffffffffffffff1673ffffffffffffffffffffffffffffffffffffffff16815260200190815260200160002060009054906101000a900460ff16155b15612b4a576000600660008473ffffffffffffffffffffffffffffffffffffffff1673ffffffffffffffffffffffffffffffffffffffff16815260200190815260200160002060003373ffffffffffffffffffffffffffffffffffffffff1673ffffffffffffffffffffffffffffffffffffffff16815260200190815260200160002054905081811015612a9d576040517f08c379a00000000000000000000000000000000000000000000000000000000081526004018080602001828103825260188152602001807f4e6f7420656e6f7567682066756e647320616c6c6f776564000000000000000081525060200191505060405180910390fd5b7fffffffffffffffffffffffffffffffffffffffffffffffffffffffffffffffff8114612b4857818103600660008573ffffffffffffffffffffffffffffffffffffffff1673ffffffffffffffffffffffffffffffffffffffff16815260200190815260200160002060003373ffffffffffffffffffffffffffffffffffffffff1673ffffffffffffffffffffffffffffffffffffffff168152602001908152602001600020819055505b505b6000600560008473ffffffffffffffffffffffffffffffffffffffff1673ffffffffffffffffffffffffffffffffffffffff16815260200190815260200160002054905081811015612c04576040517f08c379a00000000000000000000000000000000000000000000000000000000081526004018080602001828103825260108152602001807f4e6f7420656e6f7567682066756e64730000000000000000000000000000000081525060200191505060405180910390fd5b818103600560008573ffffffffffffffffffffffffffffffffffffffff1673ffffffffffffffffffffffffffffffffffffffff1681526020019081526020016000208190555081600460008282540392505081905550600073ffffffffffffffffffffffffffffffffffffffff168373ffffffffffffffffffffffffffffffffffffffff167fddf252ad1be2c89b69c2b068fc378daa952ba7f163c4a11628f55a4df523b3ef846040518082815260200191505060405180910390a3505050565b600073ffffffffffffffffffffffffffffffffffffffff168273ffffffffffffffffffffffffffffffffffffffff161415612d68576040517f08c379a00000000000000000000000000000000000000000000000000000000081526004018080602001828103825260128152602001807f43616e6e6f742073656e6420746f20307830000000000000000000000000000081525060200191505060405180910390fd5b6000600560008573ffffffffffffffffffffffffffffffffffffffff1673ffffffffffffffffffffffffffffffffffffffff16815260200190815260200160002054905081811015612e22576040517f08c379a000000000000000000000000000000000000000000000000000000000815260040180806020018281038252600f8152602001807f6e6f7420656e6f7567682066756e64000000000000000000000000000000000081525060200191505060405180910390fd5b818103600560008673ffffffffffffffffffffffffffffffffffffffff1673ffffffffffffffffffffffffffffffffffffffff1681526020019081526020016000208190555081600560008573ffffffffffffffffffffffffffffffffffffffff1673ffffffffffffffffffffffffffffffffffffffff168152602001908152602001600020600082825401925050819055508273ffffffffffffffffffffffffffffffffffffffff168473ffffffffffffffffffffffffffffffffffffffff167fddf252ad1be2c89b69c2b068fc378daa952ba7f163c4a11628f55a4df523b3ef846040518082815260200191505060405180910390a350505050565b600081118015612f365750612f3482611825565b155b15612fd2576000600660008573ffffffffffffffffffffffffffffffffffffffff1673ffffffffffffffffffffffffffffffffffffffff16815260200190815260200160002060008473ffffffffffffffffffffffffffffffffffffffff1673ffffffffffffffffffffffffffffffffffffffff16815260200190815260200160002054905081811015612fd057612fcf8484846126de565b5b505b505050565b600060606000851115612ff057612fef878787612f20565b5b8573ffffffffffffffffffffffffffffffffffffffff1684846040518082805190602001908083835b6020831061303c5780518252602082019150602081019050602083039250613019565b6001836020036101000a03801982511681845116808217855250505050505090500191505060006040518083038160008787f1925050503d806000811461309f576040519150601f19603f3d011682016040523d82523d6000602084013e6130a4565b606091505b508092508193505050603f84816130b757fe5b045a116130c057fe5b9550959350505050565b60006044835110156130df5760009050613105565b6000602484015190508273ffffffffffffffffffffffffffffffffffffffff1681149150505b92915050565b60005a840390508581111561311e578590505b8281019050600085820290508582828161313457fe5b04146131a8576040517f08c379a00000000000000000000000000000000000000000000000000000000081526004018080602001828103825260088152602001807f6f766572666c6f7700000000000000000000000000000000000000000000000081525060200191505060405180910390fd5b6131b3888483612cc5565b505050505050505056fe6d73672e73656e64657220213d206f776e6572202626202173757065724f70657261746f726f6e6c7920657865637574696f6e206f70657261746f727320616c6c6f77656420746f2070657266726f6d207472616e7366657220616e64206368617267656f6e6c7920657865637574696f6e2061646d696e20697320616c6c6f77656420746f2061646420657865637574696f6e206f70657261746f72736f6e6c792061646d696e20697320616c6c6f77656420746f20616464207375706572206f70657261746f72736f6e6c7920657865637574696f6e41646d696e2063616e206368616e676520657865637574696f6e41646d696e6f6e6c7920657865637574696f6e206f70657261746f727320616c6c6f77656420746f2065786563757465206f6e2053414e4420626568616c66a265627a7a723058209b313234f6eac84eea789478c5552989c6f68f1782f858f7c6c315dab206239d64736f6c63430005090032",
  "source": "pragma solidity 0.5.9;\n\nimport \"./ElonsMusk/erc20/ERC20ExecuteExtension.sol\";\nimport \"./ElonsMusk/erc20/ERC20BaseToken.sol\";\nimport \"./ElonsMusk/erc20/ERC20BasicApproveExtension.sol\";\n\ncontract ElonsMusk is ERC20ExecuteExtension, ERC20BasicApproveExtension, ERC20BaseToken {\n\n  constructor(address elonsAdmin, address executionAdmin, address beneficiary) public {\n    _admin = elonsAdmin;\n    _executionAdmin = executionAdmin;\n    _mint(beneficiary, 69420000000000);\n  }\n\n  /// @notice A descriptive name for the tokens\n  /// @return name of the tokens\n  function name() public view returns (string memory) {\n    return \"Elon`s Musk\";\n  }\n\n  /// @notice An abbreviated name for the tokens\n  /// @return symbol of the tokens\n  function symbol() public view returns (string memory) {\n    return \"EMUSK\";\n  }\n}\n",
  "sourcePath": "/Users/hprieto/Dev/elons-musk-smart-contracts/contracts/ElonsMusk.sol",
  "compiler": {
    "name": "solc",
    "version": "0.5.9+commit.e560f70d.Emscripten.clang"
  },
  "schemaVersion": "3.4.3",
  "updatedAt": "2021-11-17T02:37:22.266Z",
  "devdoc": {
    "methods": {
      "allowance(address,address)": {
        "params": {
          "owner": "address whose token is allowed.",
          "spender": "address allowed to transfer."
        },
        "return": "the amount of token `spender` is allowed to transfer on behalf of `owner`."
      },
      "approve(address,uint256)": {
        "params": {
          "amount": "the number of tokens allowed.",
          "spender": "address to be given rights to transfer."
        },
        "return": "true if success."
      },
      "approveAndCall(address,uint256,bytes)": {
        "params": {
          "amount": "the number of tokens allowed.",
          "data": "bytes for the call.",
          "target": "address to be given rights to transfer and destination of the call."
        },
        "return": "data of the call."
      },
      "approveAndExecuteWithSpecificGas(address,address,uint256,uint256,bytes)": {
        "params": {
          "amount": "number of tokens allowed that can be transfer by the code at `to`.",
          "data": "the bytes sent to the destination address.",
          "from": "address of which token will be transfered.",
          "gasLimit": "exact amount of gas to be passed to the call.",
          "to": "destination address fo the call."
        },
        "return": "success whether the execution was successful.returnData data resulting from the execution."
      },
      "approveAndExecuteWithSpecificGasAndChargeForIt(address,address,uint256,uint256,uint256,uint256,address,bytes)": {
        "details": "the reason for this function is that charging for gas here is more gas-efficient than doing it in the caller.",
        "params": {
          "amount": "number of tokens allowed that can be transfer by the code at `to`.",
          "baseGasCharge": "amount of gas charged on top of the gas used for the call.",
          "data": "the bytes sent to the destination address.",
          "from": "address of which token will be transfered.",
          "gasLimit": "exact amount of gas to be passed to the call.",
          "to": "destination address fo the call.",
          "tokenGasPrice": "price in token for the gas to be charged.",
          "tokenReceiver": "recipient address of the token charged for the gas used."
        },
        "return": "success whether the execution was successful.returnData data resulting from the execution."
      },
      "approveFor(address,address,uint256)": {
        "params": {
          "amount": "the number of tokens allowed.",
          "owner": "address whose token is allowed.",
          "spender": "address to be given rights to transfer."
        },
        "return": "true if success."
      },
      "balanceOf(address)": {
        "params": {
          "owner": "The address to query the balance of."
        },
        "return": "The amount owned by `owner`."
      },
      "burn(uint256)": {
        "params": {
          "amount": "the number of tokens to burn."
        },
        "return": "true if success."
      },
      "burnFor(address,uint256)": {
        "params": {
          "amount": "the number of token to burn.",
          "owner": "address whose token is to burn."
        },
        "return": "true if success."
      },
      "changeAdmin(address)": {
        "params": {
          "newAdmin": "address of the new administrator."
        }
      },
      "changeExecutionAdmin(address)": {
        "params": {
          "newAdmin": "address of the new administrator."
        }
      },
      "decimals()": {
        "return": "the number of decimals."
      },
      "executeWithSpecificGas(address,uint256,bytes)": {
        "params": {
          "data": "the bytes sent to the destination address.",
          "gasLimit": "exact amount of gas to be passed to the call.",
          "to": "destination address fo the call."
        },
        "return": "success whether the execution was successful.returnData data resulting from the execution."
      },
      "getAdmin()": {
        "return": "the current administrator of this contract."
      },
      "getExecutionAdmin()": {
        "return": "address of the execution administrator."
      },
      "isExecutionOperator(address)": {
        "params": {
          "who": "The address to query."
        },
        "return": "whether the address has executionOperator rights."
      },
      "isSuperOperator(address)": {
        "params": {
          "who": "The address to query."
        },
        "return": "whether the address has superOperator rights."
      },
      "name()": {
        "return": "name of the tokens"
      },
      "paidCall(address,uint256,bytes)": {
        "params": {
          "amount": "the number of tokens allowed to spend.",
          "data": "bytes for the call.",
          "target": "destination of the call, allowed to spend the amount specified"
        },
        "return": "data of the call."
      },
      "setExecutionOperator(address,bool)": {
        "params": {
          "enabled": "set whether the executionOperator is enabled or disabled.",
          "executionOperator": "address that will be given/removed executionOperator right."
        }
      },
      "setSuperOperator(address,bool)": {
        "params": {
          "enabled": "set whether the superOperator is enabled or disabled.",
          "superOperator": "address that will be given/removed superOperator right."
        }
      },
      "symbol()": {
        "return": "symbol of the tokens"
      },
      "totalSupply()": {
        "return": "the total number of tokens in existence."
      },
      "transfer(address,uint256)": {
        "params": {
          "amount": "the number of tokens transfered.",
          "to": "the recipient address of the tokens transfered."
        },
        "return": "true if success."
      },
      "transferAndChargeForGas(address,address,uint256,uint256,uint256,uint256,address)": {
        "params": {
          "amount": "number of tokens allowed that can be transfer by the code at `to`.",
          "baseGasCharge": "amount of gas charged on top of the gas used for the call.",
          "from": "address of which token will be transfered.",
          "gasLimit": "exact amount of gas to be passed to the call.",
          "to": "destination address fo the call.",
          "tokenGasPrice": "price in token for the gas to be charged.",
          "tokenReceiver": "recipient address of the token charged for the gas used."
        },
        "return": "whether the transfer was successful."
      },
      "transferFrom(address,address,uint256)": {
        "params": {
          "amount": "the number of tokens transfered.",
          "from": "whose token it is transferring from.",
          "to": "the recipient address of the tokens transfered."
        },
        "return": "true if success."
      }
    }
  },
  "userdoc": {
    "methods": {
      "allowance(address,address)": {
        "notice": "gets allowance of `spender` for `owner`'s tokens."
      },
      "approve(address,uint256)": {
        "notice": "approve `spender` to transfer `amount` tokens."
      },
      "approveAndCall(address,uint256,bytes)": {
        "notice": "approve `target` to spend `amount` and call it with data."
      },
      "approveAndExecuteWithSpecificGas(address,address,uint256,uint256,bytes)": {
        "notice": "approve a specific amount of token for `from` and execute on behalf of the contract."
      },
      "approveAndExecuteWithSpecificGasAndChargeForIt(address,address,uint256,uint256,uint256,uint256,address,bytes)": {
        "notice": "approve a specific amount of token for `from` and execute on behalf of the contract. Plus charge the gas required to perform it."
      },
      "approveFor(address,address,uint256)": {
        "notice": "approve `spender` to transfer `amount` tokens from `owner`."
      },
      "balanceOf(address)": {
        "notice": "Gets the balance of `owner`."
      },
      "burn(uint256)": {
        "notice": "burn `amount` tokens."
      },
      "burnFor(address,uint256)": {
        "notice": "burn `amount` tokens from `owner`."
      },
      "changeAdmin(address)": {
        "notice": "change the administrator to be `newAdmin`."
      },
      "changeExecutionAdmin(address)": {
        "notice": "change the execution adminstrator to be `newAdmin`."
      },
      "decimals()": {
        "notice": "returns the number of decimals for that token."
      },
      "executeWithSpecificGas(address,uint256,bytes)": {
        "notice": "execute on behalf of the contract."
      },
      "getAdmin()": {
        "notice": "gives the current administrator of this contract."
      },
      "getExecutionAdmin()": {
        "notice": "give the address responsible for adding execution rights."
      },
      "isExecutionOperator(address)": {
        "notice": "check whether address `who` is given executionOperator rights."
      },
      "isSuperOperator(address)": {
        "notice": "check whether address `who` is given superOperator rights."
      },
      "name()": {
        "notice": "A descriptive name for the tokens"
      },
      "paidCall(address,uint256,bytes)": {
        "notice": "temporarly approve `target` to spend `amount` and call it with data. Previous approvals remains unchanged."
      },
      "setExecutionOperator(address,bool)": {
        "notice": "set `executionOperator` as executionOperator: `enabled`."
      },
      "setSuperOperator(address,bool)": {
        "notice": "Enable or disable the ability of `superOperator` to transfer tokens of all (superOperator rights)."
      },
      "symbol()": {
        "notice": "An abbreviated name for the tokens"
      },
      "totalSupply()": {
        "notice": "Gets the total number of tokens in existence."
      },
      "transfer(address,uint256)": {
        "notice": "Transfer `amount` tokens to `to`."
      },
      "transferAndChargeForGas(address,address,uint256,uint256,uint256,uint256,address)": {
        "notice": "transfer 1amount1 token from `from` to `to` and charge the gas required to perform that transfer."
      },
      "transferFrom(address,address,uint256)": {
        "notice": "Transfer `amount` tokens from `from` to `to`."
      }
    }
  }
}