{
  "contractName": "ERC20BaseToken",
  "abi": [
    {
      "constant": true,
      "inputs": [
        {
          "name": "who",
          "type": "address"
        }
      ],
      "name": "isSuperOperator",
      "outputs": [
        {
          "name": "",
          "type": "bool"
        }
      ],
      "payable": false,
      "stateMutability": "view",
      "type": "function"
    },
    {
      "constant": true,
      "inputs": [],
      "name": "getAdmin",
      "outputs": [
        {
          "name": "",
          "type": "address"
        }
      ],
      "payable": false,
      "stateMutability": "view",
      "type": "function"
    },
    {
      "constant": false,
      "inputs": [
        {
          "name": "newAdmin",
          "type": "address"
        }
      ],
      "name": "changeAdmin",
      "outputs": [],
      "payable": false,
      "stateMutability": "nonpayable",
      "type": "function"
    },
    {
      "constant": false,
      "inputs": [
        {
          "name": "superOperator",
          "type": "address"
        },
        {
          "name": "enabled",
          "type": "bool"
        }
      ],
      "name": "setSuperOperator",
      "outputs": [],
      "payable": false,
      "stateMutability": "nonpayable",
      "type": "function"
    },
    {
      "anonymous": false,
      "inputs": [
        {
          "indexed": true,
          "name": "from",
          "type": "address"
        },
        {
          "indexed": true,
          "name": "to",
          "type": "address"
        },
        {
          "indexed": false,
          "name": "value",
          "type": "uint256"
        }
      ],
      "name": "Transfer",
      "type": "event"
    },
    {
      "anonymous": false,
      "inputs": [
        {
          "indexed": true,
          "name": "owner",
          "type": "address"
        },
        {
          "indexed": true,
          "name": "spender",
          "type": "address"
        },
        {
          "indexed": false,
          "name": "value",
          "type": "uint256"
        }
      ],
      "name": "Approval",
      "type": "event"
    },
    {
      "anonymous": false,
      "inputs": [
        {
          "indexed": false,
          "name": "superOperator",
          "type": "address"
        },
        {
          "indexed": false,
          "name": "enabled",
          "type": "bool"
        }
      ],
      "name": "SuperOperator",
      "type": "event"
    },
    {
      "anonymous": false,
      "inputs": [
        {
          "indexed": false,
          "name": "oldAdmin",
          "type": "address"
        },
        {
          "indexed": false,
          "name": "newAdmin",
          "type": "address"
        }
      ],
      "name": "AdminChanged",
      "type": "event"
    },
    {
      "constant": true,
      "inputs": [],
      "name": "totalSupply",
      "outputs": [
        {
          "name": "",
          "type": "uint256"
        }
      ],
      "payable": false,
      "stateMutability": "view",
      "type": "function"
    },
    {
      "constant": true,
      "inputs": [
        {
          "name": "owner",
          "type": "address"
        }
      ],
      "name": "balanceOf",
      "outputs": [
        {
          "name": "",
          "type": "uint256"
        }
      ],
      "payable": false,
      "stateMutability": "view",
      "type": "function"
    },
    {
      "constant": true,
      "inputs": [
        {
          "name": "owner",
          "type": "address"
        },
        {
          "name": "spender",
          "type": "address"
        }
      ],
      "name": "allowance",
      "outputs": [
        {
          "name": "remaining",
          "type": "uint256"
        }
      ],
      "payable": false,
      "stateMutability": "view",
      "type": "function"
    },
    {
      "constant": true,
      "inputs": [],
      "name": "decimals",
      "outputs": [
        {
          "name": "",
          "type": "uint8"
        }
      ],
      "payable": false,
      "stateMutability": "view",
      "type": "function"
    },
    {
      "constant": false,
      "inputs": [
        {
          "name": "to",
          "type": "address"
        },
        {
          "name": "amount",
          "type": "uint256"
        }
      ],
      "name": "transfer",
      "outputs": [
        {
          "name": "success",
          "type": "bool"
        }
      ],
      "payable": false,
      "stateMutability": "nonpayable",
      "type": "function"
    },
    {
      "constant": false,
      "inputs": [
        {
          "name": "from",
          "type": "address"
        },
        {
          "name": "to",
          "type": "address"
        },
        {
          "name": "amount",
          "type": "uint256"
        }
      ],
      "name": "transferFrom",
      "outputs": [
        {
          "name": "success",
          "type": "bool"
        }
      ],
      "payable": false,
      "stateMutability": "nonpayable",
      "type": "function"
    },
    {
      "constant": false,
      "inputs": [
        {
          "name": "amount",
          "type": "uint256"
        }
      ],
      "name": "burn",
      "outputs": [
        {
          "name": "",
          "type": "bool"
        }
      ],
      "payable": false,
      "stateMutability": "nonpayable",
      "type": "function"
    },
    {
      "constant": false,
      "inputs": [
        {
          "name": "owner",
          "type": "address"
        },
        {
          "name": "amount",
          "type": "uint256"
        }
      ],
      "name": "burnFor",
      "outputs": [
        {
          "name": "",
          "type": "bool"
        }
      ],
      "payable": false,
      "stateMutability": "nonpayable",
      "type": "function"
    },
    {
      "constant": false,
      "inputs": [
        {
          "name": "spender",
          "type": "address"
        },
        {
          "name": "amount",
          "type": "uint256"
        }
      ],
      "name": "approve",
      "outputs": [
        {
          "name": "success",
          "type": "bool"
        }
      ],
      "payable": false,
      "stateMutability": "nonpayable",
      "type": "function"
    },
    {
      "constant": false,
      "inputs": [
        {
          "name": "owner",
          "type": "address"
        },
        {
          "name": "spender",
          "type": "address"
        },
        {
          "name": "amount",
          "type": "uint256"
        }
      ],
      "name": "approveFor",
      "outputs": [
        {
          "name": "success",
          "type": "bool"
        }
      ],
      "payable": false,
      "stateMutability": "nonpayable",
      "type": "function"
    },
    {
      "constant": false,
      "inputs": [
        {
          "name": "owner",
          "type": "address"
        },
        {
          "name": "spender",
          "type": "address"
        },
        {
          "name": "amountNeeded",
          "type": "uint256"
        }
      ],
      "name": "addAllowanceIfNeeded",
      "outputs": [
        {
          "name": "success",
          "type": "bool"
        }
      ],
      "payable": false,
      "stateMutability": "nonpayable",
      "type": "function"
    }
  ],
  "bytecode": "0x608060405234801561001057600080fd5b506118dd806100206000396000f3fe608060405234801561001057600080fd5b50600436106100f55760003560e01c806342966c68116100975780638f283970116100665780638f283970146104de578063a9059cbb14610522578063ac9fe42114610588578063dd62ed3e146105d8576100f5565b806342966c681461039a578063654b748a146103e05780636e9960c31461043c57806370a0823114610486576100f5565b806323b872dd116100d357806323b872dd146101e45780632b9917461461026a578063313ce567146102f05780633b7b5a1614610314576100f5565b8063095ea7b3146100fa57806318160ddd146101605780631dd319cb1461017e575b600080fd5b6101466004803603604081101561011057600080fd5b81019080803573ffffffffffffffffffffffffffffffffffffffff16906020019092919080359060200190929190505050610650565b604051808215151515815260200191505060405180910390f35b610168610667565b6040518082815260200191505060405180910390f35b6101ca6004803603604081101561019457600080fd5b81019080803573ffffffffffffffffffffffffffffffffffffffff16906020019092919080359060200190929190505050610671565b604051808215151515815260200191505060405180910390f35b610250600480360360608110156101fa57600080fd5b81019080803573ffffffffffffffffffffffffffffffffffffffff169060200190929190803573ffffffffffffffffffffffffffffffffffffffff16906020019092919080359060200190929190505050610687565b604051808215151515815260200191505060405180910390f35b6102d66004803603606081101561028057600080fd5b81019080803573ffffffffffffffffffffffffffffffffffffffff169060200190929190803573ffffffffffffffffffffffffffffffffffffffff169060200190929190803590602001909291905050506108ce565b604051808215151515815260200191505060405180910390f35b6102f86109be565b604051808260ff1660ff16815260200191505060405180910390f35b6103806004803603606081101561032a57600080fd5b81019080803573ffffffffffffffffffffffffffffffffffffffff169060200190929190803573ffffffffffffffffffffffffffffffffffffffff169060200190929190803590602001909291905050506109c7565b604051808215151515815260200191505060405180910390f35b6103c6600480360360208110156103b057600080fd5b8101908080359060200190929190505050610ab7565b604051808215151515815260200191505060405180910390f35b610422600480360360208110156103f657600080fd5b81019080803573ffffffffffffffffffffffffffffffffffffffff169060200190929190505050610acc565b604051808215151515815260200191505060405180910390f35b610444610b22565b604051808273ffffffffffffffffffffffffffffffffffffffff1673ffffffffffffffffffffffffffffffffffffffff16815260200191505060405180910390f35b6104c86004803603602081101561049c57600080fd5b81019080803573ffffffffffffffffffffffffffffffffffffffff169060200190929190505050610b4b565b6040518082815260200191505060405180910390f35b610520600480360360208110156104f457600080fd5b81019080803573ffffffffffffffffffffffffffffffffffffffff169060200190929190505050610b94565b005b61056e6004803603604081101561053857600080fd5b81019080803573ffffffffffffffffffffffffffffffffffffffff16906020019092919080359060200190929190505050610d51565b604051808215151515815260200191505060405180910390f35b6105d66004803603604081101561059e57600080fd5b81019080803573ffffffffffffffffffffffffffffffffffffffff169060200190929190803515159060200190929190505050610d68565b005b61063a600480360360408110156105ee57600080fd5b81019080803573ffffffffffffffffffffffffffffffffffffffff169060200190929190803573ffffffffffffffffffffffffffffffffffffffff169060200190929190505050610ed7565b6040518082815260200191505060405180910390f35b600061065d338484610f5e565b6001905092915050565b6000600254905090565b600061067d8383611125565b6001905092915050565b60008373ffffffffffffffffffffffffffffffffffffffff163373ffffffffffffffffffffffffffffffffffffffff161415801561070f5750600160003373ffffffffffffffffffffffffffffffffffffffff1673ffffffffffffffffffffffffffffffffffffffff16815260200190815260200160002060009054906101000a900460ff16155b156108b8576000600460008673ffffffffffffffffffffffffffffffffffffffff1673ffffffffffffffffffffffffffffffffffffffff16815260200190815260200160002060003373ffffffffffffffffffffffffffffffffffffffff1673ffffffffffffffffffffffffffffffffffffffff1681526020019081526020016000205490507fffffffffffffffffffffffffffffffffffffffffffffffffffffffffffffffff81146108b65782811015610832576040517f08c379a00000000000000000000000000000000000000000000000000000000081526004018080602001828103825260188152602001807f4e6f7420656e6f7567682066756e647320616c6c6f776564000000000000000081525060200191505060405180910390fd5b828103600460008773ffffffffffffffffffffffffffffffffffffffff1673ffffffffffffffffffffffffffffffffffffffff16815260200190815260200160002060003373ffffffffffffffffffffffffffffffffffffffff1673ffffffffffffffffffffffffffffffffffffffff168152602001908152602001600020819055505b505b6108c3848484611545565b600190509392505050565b60008373ffffffffffffffffffffffffffffffffffffffff163373ffffffffffffffffffffffffffffffffffffffff1614806109535750600160003373ffffffffffffffffffffffffffffffffffffffff1673ffffffffffffffffffffffffffffffffffffffff16815260200190815260200160002060009054906101000a900460ff165b6109a8576040517f08c379a00000000000000000000000000000000000000000000000000000000081526004018080602001828103825260258152602001806118586025913960400191505060405180910390fd5b6109b3848484610f5e565b600190509392505050565b60006012905090565b60008373ffffffffffffffffffffffffffffffffffffffff163373ffffffffffffffffffffffffffffffffffffffff161480610a4c5750600160003373ffffffffffffffffffffffffffffffffffffffff1673ffffffffffffffffffffffffffffffffffffffff16815260200190815260200160002060009054906101000a900460ff165b610aa1576040517f08c379a00000000000000000000000000000000000000000000000000000000081526004018080602001828103825260258152602001806118586025913960400191505060405180910390fd5b610aac8484846117a0565b600190509392505050565b6000610ac33383611125565b60019050919050565b6000600160008373ffffffffffffffffffffffffffffffffffffffff1673ffffffffffffffffffffffffffffffffffffffff16815260200190815260200160002060009054906101000a900460ff169050919050565b60008060009054906101000a900473ffffffffffffffffffffffffffffffffffffffff16905090565b6000600360008373ffffffffffffffffffffffffffffffffffffffff1673ffffffffffffffffffffffffffffffffffffffff168152602001908152602001600020549050919050565b6000809054906101000a900473ffffffffffffffffffffffffffffffffffffffff1673ffffffffffffffffffffffffffffffffffffffff163373ffffffffffffffffffffffffffffffffffffffff1614610c56576040517f08c379a000000000000000000000000000000000000000000000000000000000815260040180806020018281038252601b8152602001807f6f6e6c792061646d696e2063616e206368616e67652061646d696e000000000081525060200191505060405180910390fd5b7f7e644d79422f17c01e4894b5f4f588d331ebfa28653d42ae832dc59e38c9798f6000809054906101000a900473ffffffffffffffffffffffffffffffffffffffff1682604051808373ffffffffffffffffffffffffffffffffffffffff1673ffffffffffffffffffffffffffffffffffffffff1681526020018273ffffffffffffffffffffffffffffffffffffffff1673ffffffffffffffffffffffffffffffffffffffff1681526020019250505060405180910390a1806000806101000a81548173ffffffffffffffffffffffffffffffffffffffff021916908373ffffffffffffffffffffffffffffffffffffffff16021790555050565b6000610d5e338484611545565b6001905092915050565b6000809054906101000a900473ffffffffffffffffffffffffffffffffffffffff1673ffffffffffffffffffffffffffffffffffffffff163373ffffffffffffffffffffffffffffffffffffffff1614610e0d576040517f08c379a000000000000000000000000000000000000000000000000000000000815260040180806020018281038252602c81526020018061187d602c913960400191505060405180910390fd5b80600160008473ffffffffffffffffffffffffffffffffffffffff1673ffffffffffffffffffffffffffffffffffffffff16815260200190815260200160002060006101000a81548160ff0219169083151502179055507f44f92d27abdf4cfb6a7d712c3af68f3be086d4ca747ab802c36f67d6790060d88282604051808373ffffffffffffffffffffffffffffffffffffffff1673ffffffffffffffffffffffffffffffffffffffff168152602001821515151581526020019250505060405180910390a15050565b6000600460008473ffffffffffffffffffffffffffffffffffffffff1673ffffffffffffffffffffffffffffffffffffffff16815260200190815260200160002060008373ffffffffffffffffffffffffffffffffffffffff1673ffffffffffffffffffffffffffffffffffffffff16815260200190815260200160002054905092915050565b600073ffffffffffffffffffffffffffffffffffffffff168373ffffffffffffffffffffffffffffffffffffffff1614158015610fc85750600073ffffffffffffffffffffffffffffffffffffffff168273ffffffffffffffffffffffffffffffffffffffff1614155b61103a576040517f08c379a00000000000000000000000000000000000000000000000000000000081526004018080602001828103825260178152602001807f43616e6e6f7420617070726f766520776974682030783000000000000000000081525060200191505060405180910390fd5b80600460008573ffffffffffffffffffffffffffffffffffffffff1673ffffffffffffffffffffffffffffffffffffffff16815260200190815260200160002060008473ffffffffffffffffffffffffffffffffffffffff1673ffffffffffffffffffffffffffffffffffffffff168152602001908152602001600020819055508173ffffffffffffffffffffffffffffffffffffffff168373ffffffffffffffffffffffffffffffffffffffff167f8c5be1e5ebec7d5bd14f71427d1e84f3dd0314c0f7b2291e5b200ac8c7c3b925836040518082815260200191505060405180910390a3505050565b6000811161119b576040517f08c379a00000000000000000000000000000000000000000000000000000000081526004018080602001828103825260148152602001807f63616e6e6f74206275726e203020746f6b656e7300000000000000000000000081525060200191505060405180910390fd5b8173ffffffffffffffffffffffffffffffffffffffff163373ffffffffffffffffffffffffffffffffffffffff16141580156112215750600160003373ffffffffffffffffffffffffffffffffffffffff1673ffffffffffffffffffffffffffffffffffffffff16815260200190815260200160002060009054906101000a900460ff16155b156113ca576000600460008473ffffffffffffffffffffffffffffffffffffffff1673ffffffffffffffffffffffffffffffffffffffff16815260200190815260200160002060003373ffffffffffffffffffffffffffffffffffffffff1673ffffffffffffffffffffffffffffffffffffffff1681526020019081526020016000205490508181101561131d576040517f08c379a00000000000000000000000000000000000000000000000000000000081526004018080602001828103825260188152602001807f4e6f7420656e6f7567682066756e647320616c6c6f776564000000000000000081525060200191505060405180910390fd5b7fffffffffffffffffffffffffffffffffffffffffffffffffffffffffffffffff81146113c857818103600460008573ffffffffffffffffffffffffffffffffffffffff1673ffffffffffffffffffffffffffffffffffffffff16815260200190815260200160002060003373ffffffffffffffffffffffffffffffffffffffff1673ffffffffffffffffffffffffffffffffffffffff168152602001908152602001600020819055505b505b6000600360008473ffffffffffffffffffffffffffffffffffffffff1673ffffffffffffffffffffffffffffffffffffffff16815260200190815260200160002054905081811015611484576040517f08c379a00000000000000000000000000000000000000000000000000000000081526004018080602001828103825260108152602001807f4e6f7420656e6f7567682066756e64730000000000000000000000000000000081525060200191505060405180910390fd5b818103600360008573ffffffffffffffffffffffffffffffffffffffff1673ffffffffffffffffffffffffffffffffffffffff1681526020019081526020016000208190555081600260008282540392505081905550600073ffffffffffffffffffffffffffffffffffffffff168373ffffffffffffffffffffffffffffffffffffffff167fddf252ad1be2c89b69c2b068fc378daa952ba7f163c4a11628f55a4df523b3ef846040518082815260200191505060405180910390a3505050565b600073ffffffffffffffffffffffffffffffffffffffff168273ffffffffffffffffffffffffffffffffffffffff1614156115e8576040517f08c379a00000000000000000000000000000000000000000000000000000000081526004018080602001828103825260128152602001807f43616e6e6f742073656e6420746f20307830000000000000000000000000000081525060200191505060405180910390fd5b6000600360008573ffffffffffffffffffffffffffffffffffffffff1673ffffffffffffffffffffffffffffffffffffffff168152602001908152602001600020549050818110156116a2576040517f08c379a000000000000000000000000000000000000000000000000000000000815260040180806020018281038252600f8152602001807f6e6f7420656e6f7567682066756e64000000000000000000000000000000000081525060200191505060405180910390fd5b818103600360008673ffffffffffffffffffffffffffffffffffffffff1673ffffffffffffffffffffffffffffffffffffffff1681526020019081526020016000208190555081600360008573ffffffffffffffffffffffffffffffffffffffff1673ffffffffffffffffffffffffffffffffffffffff168152602001908152602001600020600082825401925050819055508273ffffffffffffffffffffffffffffffffffffffff168473ffffffffffffffffffffffffffffffffffffffff167fddf252ad1be2c89b69c2b068fc378daa952ba7f163c4a11628f55a4df523b3ef846040518082815260200191505060405180910390a350505050565b6000811180156117b657506117b482610acc565b155b15611852576000600460008573ffffffffffffffffffffffffffffffffffffffff1673ffffffffffffffffffffffffffffffffffffffff16815260200190815260200160002060008473ffffffffffffffffffffffffffffffffffffffff1673ffffffffffffffffffffffffffffffffffffffff168152602001908152602001600020549050818110156118505761184f848484610f5e565b5b505b50505056fe6d73672e73656e64657220213d206f776e6572202626202173757065724f70657261746f726f6e6c792061646d696e20697320616c6c6f77656420746f20616464207375706572206f70657261746f7273a265627a7a723058205b99e8fc8d12fdb6f971bbc74730a1cdeac788529e0cde66d70b0caaed25778064736f6c63430005090032",
  "source": "pragma solidity 0.5.9;\n\nimport \"../../common/interfaces/ERC20Events.sol\";\nimport \"../../common/BaseWithStorage/SuperOperators.sol\";\n\ncontract ERC20BaseToken is SuperOperators, ERC20Events {\n\n    uint256 internal _totalSupply;\n    mapping(address => uint256) internal _balances;\n    mapping(address => mapping(address => uint256)) internal _allowances;\n\n    /// @notice Gets the total number of tokens in existence.\n    /// @return the total number of tokens in existence.\n    function totalSupply() public view returns (uint256) {\n        return _totalSupply;\n    }\n\n    /// @notice Gets the balance of `owner`.\n    /// @param owner The address to query the balance of.\n    /// @return The amount owned by `owner`.\n    function balanceOf(address owner) public view returns (uint256) {\n        return _balances[owner];\n    }\n\n    /// @notice gets allowance of `spender` for `owner`'s tokens.\n    /// @param owner address whose token is allowed.\n    /// @param spender address allowed to transfer.\n    /// @return the amount of token `spender` is allowed to transfer on behalf of `owner`.\n    function allowance(address owner, address spender)\n        public\n        view\n        returns (uint256 remaining)\n    {\n        return _allowances[owner][spender];\n    }\n\n    /// @notice returns the number of decimals for that token.\n    /// @return the number of decimals.\n    function decimals() public view returns (uint8) {\n        return uint8(18);\n    }\n\n    /// @notice Transfer `amount` tokens to `to`.\n    /// @param to the recipient address of the tokens transfered.\n    /// @param amount the number of tokens transfered.\n    /// @return true if success.\n    function transfer(address to, uint256 amount)\n        public\n        returns (bool success)\n    {\n        _transfer(msg.sender, to, amount);\n        return true;\n    }\n\n    /// @notice Transfer `amount` tokens from `from` to `to`.\n    /// @param from whose token it is transferring from.\n    /// @param to the recipient address of the tokens transfered.\n    /// @param amount the number of tokens transfered.\n    /// @return true if success.\n    function transferFrom(address from, address to, uint256 amount)\n        public\n        returns (bool success)\n    {\n        if (msg.sender != from && !_superOperators[msg.sender]) {\n            uint256 currentAllowance = _allowances[from][msg.sender];\n            if (currentAllowance != (2**256) - 1) {\n                // save gas when allowance is maximal by not reducing it (see https://github.com/ethereum/EIPs/issues/717)\n                require(currentAllowance >= amount, \"Not enough funds allowed\");\n                _allowances[from][msg.sender] = currentAllowance - amount;\n            }\n        }\n        _transfer(from, to, amount);\n        return true;\n    }\n\n    /// @notice burn `amount` tokens.\n    /// @param amount the number of tokens to burn.\n    /// @return true if success.\n    function burn(uint256 amount) external returns (bool) {\n        _burn(msg.sender, amount);\n        return true;\n    }\n\n    /// @notice burn `amount` tokens from `owner`.\n    /// @param owner address whose token is to burn.\n    /// @param amount the number of token to burn.\n    /// @return true if success.\n    function burnFor(address owner, uint256 amount) external returns (bool) {\n        _burn(owner, amount);\n        return true;\n    }\n\n    /// @notice approve `spender` to transfer `amount` tokens.\n    /// @param spender address to be given rights to transfer.\n    /// @param amount the number of tokens allowed.\n    /// @return true if success.\n    function approve(address spender, uint256 amount)\n        public\n        returns (bool success)\n    {\n        _approveFor(msg.sender, spender, amount);\n        return true;\n    }\n\n    /// @notice approve `spender` to transfer `amount` tokens from `owner`.\n    /// @param owner address whose token is allowed.\n    /// @param spender  address to be given rights to transfer.\n    /// @param amount the number of tokens allowed.\n    /// @return true if success.\n    function approveFor(address owner, address spender, uint256 amount)\n        public\n        returns (bool success)\n    {\n        require(\n            msg.sender == owner || _superOperators[msg.sender],\n            \"msg.sender != owner && !superOperator\"\n        );\n        _approveFor(owner, spender, amount);\n        return true;\n    }\n\n    function addAllowanceIfNeeded(address owner, address spender, uint256 amountNeeded)\n        public\n        returns (bool success)\n    {\n        require(\n            msg.sender == owner || _superOperators[msg.sender],\n            \"msg.sender != owner && !superOperator\"\n        );\n        _addAllowanceIfNeeded(owner, spender, amountNeeded);\n        return true;\n    }\n\n    function _addAllowanceIfNeeded(address owner, address spender, uint256 amountNeeded)\n        internal\n    {\n        if(amountNeeded > 0 && !isSuperOperator(spender)) {\n            uint256 currentAllowance = _allowances[owner][spender];\n            if(currentAllowance < amountNeeded) {\n                _approveFor(owner, spender, amountNeeded);\n            }\n        }\n    }\n\n    function _approveFor(address owner, address spender, uint256 amount)\n        internal\n    {\n        require(\n            owner != address(0) && spender != address(0),\n            \"Cannot approve with 0x0\"\n        );\n        _allowances[owner][spender] = amount;\n        emit Approval(owner, spender, amount);\n    }\n\n    function _transfer(address from, address to, uint256 amount) internal {\n        require(to != address(0), \"Cannot send to 0x0\");\n        uint256 currentBalance = _balances[from];\n        require(currentBalance >= amount, \"not enough fund\");\n        _balances[from] = currentBalance - amount;\n        _balances[to] += amount;\n        emit Transfer(from, to, amount);\n    }\n\n    function _mint(address to, uint256 amount) internal {\n        require(to != address(0), \"Cannot mint to 0x0\");\n        require(amount > 0, \"cannot mint 0 tokens\");\n        uint256 currentTotalSupply = _totalSupply;\n        uint256 newTotalSupply = currentTotalSupply + amount;\n        require(newTotalSupply > currentTotalSupply, \"overflow\");\n        _totalSupply = newTotalSupply;\n        _balances[to] += amount;\n        emit Transfer(address(0), to, amount);\n    }\n\n    function _burn(address from, uint256 amount) internal {\n        require(amount > 0, \"cannot burn 0 tokens\");\n        if (msg.sender != from && !_superOperators[msg.sender]) {\n            uint256 currentAllowance = _allowances[from][msg.sender];\n            require(\n                currentAllowance >= amount,\n                \"Not enough funds allowed\"\n            );\n            if (currentAllowance != (2**256) - 1) {\n                // save gas when allowance is maximal by not reducing it (see https://github.com/ethereum/EIPs/issues/717)\n                _allowances[from][msg.sender] = currentAllowance - amount;\n            }\n        }\n\n        uint256 currentBalance = _balances[from];\n        require(currentBalance >= amount, \"Not enough funds\");\n        _balances[from] = currentBalance - amount;\n        _totalSupply -= amount;\n        emit Transfer(from, address(0), amount);\n    }\n}\n",
  "sourcePath": "/Users/hprieto/Dev/elons-musk-smart-contracts/contracts/ElonsMusk/erc20/ERC20BaseToken.sol",
  "compiler": {
    "name": "solc",
    "version": "0.5.9+commit.e560f70d.Emscripten.clang"
  },
  "schemaVersion": "3.4.3",
  "updatedAt": "2021-11-17T02:37:22.268Z",
  "devdoc": {
    "methods": {
      "allowance(address,address)": {
        "params": {
          "owner": "address whose token is allowed.",
          "spender": "address allowed to transfer."
        },
        "return": "the amount of token `spender` is allowed to transfer on behalf of `owner`."
      },
      "approve(address,uint256)": {
        "params": {
          "amount": "the number of tokens allowed.",
          "spender": "address to be given rights to transfer."
        },
        "return": "true if success."
      },
      "approveFor(address,address,uint256)": {
        "params": {
          "amount": "the number of tokens allowed.",
          "owner": "address whose token is allowed.",
          "spender": "address to be given rights to transfer."
        },
        "return": "true if success."
      },
      "balanceOf(address)": {
        "params": {
          "owner": "The address to query the balance of."
        },
        "return": "The amount owned by `owner`."
      },
      "burn(uint256)": {
        "params": {
          "amount": "the number of tokens to burn."
        },
        "return": "true if success."
      },
      "burnFor(address,uint256)": {
        "params": {
          "amount": "the number of token to burn.",
          "owner": "address whose token is to burn."
        },
        "return": "true if success."
      },
      "changeAdmin(address)": {
        "params": {
          "newAdmin": "address of the new administrator."
        }
      },
      "decimals()": {
        "return": "the number of decimals."
      },
      "getAdmin()": {
        "return": "the current administrator of this contract."
      },
      "isSuperOperator(address)": {
        "params": {
          "who": "The address to query."
        },
        "return": "whether the address has superOperator rights."
      },
      "setSuperOperator(address,bool)": {
        "params": {
          "enabled": "set whether the superOperator is enabled or disabled.",
          "superOperator": "address that will be given/removed superOperator right."
        }
      },
      "totalSupply()": {
        "return": "the total number of tokens in existence."
      },
      "transfer(address,uint256)": {
        "params": {
          "amount": "the number of tokens transfered.",
          "to": "the recipient address of the tokens transfered."
        },
        "return": "true if success."
      },
      "transferFrom(address,address,uint256)": {
        "params": {
          "amount": "the number of tokens transfered.",
          "from": "whose token it is transferring from.",
          "to": "the recipient address of the tokens transfered."
        },
        "return": "true if success."
      }
    }
  },
  "userdoc": {
    "methods": {
      "allowance(address,address)": {
        "notice": "gets allowance of `spender` for `owner`'s tokens."
      },
      "approve(address,uint256)": {
        "notice": "approve `spender` to transfer `amount` tokens."
      },
      "approveFor(address,address,uint256)": {
        "notice": "approve `spender` to transfer `amount` tokens from `owner`."
      },
      "balanceOf(address)": {
        "notice": "Gets the balance of `owner`."
      },
      "burn(uint256)": {
        "notice": "burn `amount` tokens."
      },
      "burnFor(address,uint256)": {
        "notice": "burn `amount` tokens from `owner`."
      },
      "changeAdmin(address)": {
        "notice": "change the administrator to be `newAdmin`."
      },
      "decimals()": {
        "notice": "returns the number of decimals for that token."
      },
      "getAdmin()": {
        "notice": "gives the current administrator of this contract."
      },
      "isSuperOperator(address)": {
        "notice": "check whether address `who` is given superOperator rights."
      },
      "setSuperOperator(address,bool)": {
        "notice": "Enable or disable the ability of `superOperator` to transfer tokens of all (superOperator rights)."
      },
      "totalSupply()": {
        "notice": "Gets the total number of tokens in existence."
      },
      "transfer(address,uint256)": {
        "notice": "Transfer `amount` tokens to `to`."
      },
      "transferFrom(address,address,uint256)": {
        "notice": "Transfer `amount` tokens from `from` to `to`."
      }
    }
  }
}