{
  "contractName": "SuperOperators",
  "abi": [
    {
      "constant": true,
      "inputs": [],
      "name": "getAdmin",
      "outputs": [
        {
          "name": "",
          "type": "address"
        }
      ],
      "payable": false,
      "stateMutability": "view",
      "type": "function"
    },
    {
      "constant": false,
      "inputs": [
        {
          "name": "newAdmin",
          "type": "address"
        }
      ],
      "name": "changeAdmin",
      "outputs": [],
      "payable": false,
      "stateMutability": "nonpayable",
      "type": "function"
    },
    {
      "anonymous": false,
      "inputs": [
        {
          "indexed": false,
          "name": "superOperator",
          "type": "address"
        },
        {
          "indexed": false,
          "name": "enabled",
          "type": "bool"
        }
      ],
      "name": "SuperOperator",
      "type": "event"
    },
    {
      "anonymous": false,
      "inputs": [
        {
          "indexed": false,
          "name": "oldAdmin",
          "type": "address"
        },
        {
          "indexed": false,
          "name": "newAdmin",
          "type": "address"
        }
      ],
      "name": "AdminChanged",
      "type": "event"
    },
    {
      "constant": false,
      "inputs": [
        {
          "name": "superOperator",
          "type": "address"
        },
        {
          "name": "enabled",
          "type": "bool"
        }
      ],
      "name": "setSuperOperator",
      "outputs": [],
      "payable": false,
      "stateMutability": "nonpayable",
      "type": "function"
    },
    {
      "constant": true,
      "inputs": [
        {
          "name": "who",
          "type": "address"
        }
      ],
      "name": "isSuperOperator",
      "outputs": [
        {
          "name": "",
          "type": "bool"
        }
      ],
      "payable": false,
      "stateMutability": "view",
      "type": "function"
    }
  ],
  "bytecode": "0x608060405234801561001057600080fd5b50610597806100206000396000f3fe608060405234801561001057600080fd5b506004361061004c5760003560e01c8063654b748a146100515780636e9960c3146100ad5780638f283970146100f7578063ac9fe4211461013b575b600080fd5b6100936004803603602081101561006757600080fd5b81019080803573ffffffffffffffffffffffffffffffffffffffff16906020019092919050505061018b565b604051808215151515815260200191505060405180910390f35b6100b56101e1565b604051808273ffffffffffffffffffffffffffffffffffffffff1673ffffffffffffffffffffffffffffffffffffffff16815260200191505060405180910390f35b6101396004803603602081101561010d57600080fd5b81019080803573ffffffffffffffffffffffffffffffffffffffff16906020019092919050505061020a565b005b6101896004803603604081101561015157600080fd5b81019080803573ffffffffffffffffffffffffffffffffffffffff1690602001909291908035151590602001909291905050506103c7565b005b6000600160008373ffffffffffffffffffffffffffffffffffffffff1673ffffffffffffffffffffffffffffffffffffffff16815260200190815260200160002060009054906101000a900460ff169050919050565b60008060009054906101000a900473ffffffffffffffffffffffffffffffffffffffff16905090565b6000809054906101000a900473ffffffffffffffffffffffffffffffffffffffff1673ffffffffffffffffffffffffffffffffffffffff163373ffffffffffffffffffffffffffffffffffffffff16146102cc576040517f08c379a000000000000000000000000000000000000000000000000000000000815260040180806020018281038252601b8152602001807f6f6e6c792061646d696e2063616e206368616e67652061646d696e000000000081525060200191505060405180910390fd5b7f7e644d79422f17c01e4894b5f4f588d331ebfa28653d42ae832dc59e38c9798f6000809054906101000a900473ffffffffffffffffffffffffffffffffffffffff1682604051808373ffffffffffffffffffffffffffffffffffffffff1673ffffffffffffffffffffffffffffffffffffffff1681526020018273ffffffffffffffffffffffffffffffffffffffff1673ffffffffffffffffffffffffffffffffffffffff1681526020019250505060405180910390a1806000806101000a81548173ffffffffffffffffffffffffffffffffffffffff021916908373ffffffffffffffffffffffffffffffffffffffff16021790555050565b6000809054906101000a900473ffffffffffffffffffffffffffffffffffffffff1673ffffffffffffffffffffffffffffffffffffffff163373ffffffffffffffffffffffffffffffffffffffff161461046c576040517f08c379a000000000000000000000000000000000000000000000000000000000815260040180806020018281038252602c815260200180610537602c913960400191505060405180910390fd5b80600160008473ffffffffffffffffffffffffffffffffffffffff1673ffffffffffffffffffffffffffffffffffffffff16815260200190815260200160002060006101000a81548160ff0219169083151502179055507f44f92d27abdf4cfb6a7d712c3af68f3be086d4ca747ab802c36f67d6790060d88282604051808373ffffffffffffffffffffffffffffffffffffffff1673ffffffffffffffffffffffffffffffffffffffff168152602001821515151581526020019250505060405180910390a1505056fe6f6e6c792061646d696e20697320616c6c6f77656420746f20616464207375706572206f70657261746f7273a265627a7a72305820ff1ac353c04b2d93f2dd41b3ea2aad73d2c29073af559f12fac6bccfb7b5375064736f6c63430005090032",
  "source": "pragma solidity ^0.5.2;\n\nimport \"./Admin.sol\";\n\ncontract SuperOperators is Admin {\n\n    mapping(address => bool) internal _superOperators;\n\n    event SuperOperator(address superOperator, bool enabled);\n\n    /// @notice Enable or disable the ability of `superOperator` to transfer tokens of all (superOperator rights).\n    /// @param superOperator address that will be given/removed superOperator right.\n    /// @param enabled set whether the superOperator is enabled or disabled.\n    function setSuperOperator(address superOperator, bool enabled) external {\n        require(\n            msg.sender == _admin,\n            \"only admin is allowed to add super operators\"\n        );\n        _superOperators[superOperator] = enabled;\n        emit SuperOperator(superOperator, enabled);\n    }\n\n    /// @notice check whether address `who` is given superOperator rights.\n    /// @param who The address to query.\n    /// @return whether the address has superOperator rights.\n    function isSuperOperator(address who) public view returns (bool) {\n        return _superOperators[who];\n    }\n}\n",
  "sourcePath": "/Users/hprieto/Dev/elons-musk-smart-contracts/contracts/common/BaseWithStorage/SuperOperators.sol",
  "compiler": {
    "name": "solc",
    "version": "0.5.9+commit.e560f70d.Emscripten.clang"
  },
  "schemaVersion": "3.4.3",
  "updatedAt": "2021-11-17T02:37:22.277Z",
  "devdoc": {
    "methods": {
      "changeAdmin(address)": {
        "params": {
          "newAdmin": "address of the new administrator."
        }
      },
      "getAdmin()": {
        "return": "the current administrator of this contract."
      },
      "isSuperOperator(address)": {
        "params": {
          "who": "The address to query."
        },
        "return": "whether the address has superOperator rights."
      },
      "setSuperOperator(address,bool)": {
        "params": {
          "enabled": "set whether the superOperator is enabled or disabled.",
          "superOperator": "address that will be given/removed superOperator right."
        }
      }
    }
  },
  "userdoc": {
    "methods": {
      "changeAdmin(address)": {
        "notice": "change the administrator to be `newAdmin`."
      },
      "getAdmin()": {
        "notice": "gives the current administrator of this contract."
      },
      "isSuperOperator(address)": {
        "notice": "check whether address `who` is given superOperator rights."
      },
      "setSuperOperator(address,bool)": {
        "notice": "Enable or disable the ability of `superOperator` to transfer tokens of all (superOperator rights)."
      }
    }
  }
}